:0300000002334A7E
:0C334A00787FE4F6D8FD758120023391F5
:10395100D293D294123A1C1237061239A0123B4666
:0D396100C2941239331232A0123AAA80F536
:0437E800AD07AC0677
:1037EC00C201EC900166F0EFA3F01239CC7FA0126D
:1037FC00382C92012001F3900166E0FF12382C90D6
:10380C000167E0FF12382C1239CC7FA112382C1230
:0F381C0038E1900165EFF0123A8C900165E0FF02
:01382B00227A
:09386C00900165EDF0AB07AA061E
:10387500C201EAA3F0EFA3F01239CC7FA012382CD5
:1038850092012001F3900166E0FF12382C90016748
:10389500E0FF12382C900165E0FF12382C123A8CAB
:0338A500023AF7ED
:10345300900047EEF0A3EFF0A3ECF0A3EDF0A3EBA5
:07346300F0A3EAF0A3E9F079
:10346A00E4A3F0A3F0900049E0FEA3E0FF90004E31
:10347A00E0FCA3E0FDC39FEC9E5037900048E02D8E
:10348A00FF900047E03CFE1237E890004BE0FBA3B8
:10349A00E0FAA3E0F9A3E0FCA3E0F5828C83EF1243
:1034AA00176E90004FE004F070BB90004EE004F0FD
:0A34BA0080B390004EE0FEA3E0FF97
:0134C40022E5
:1034C500900143EEF0A3EFF0A3ECF0A3EDF0A3EB36
:0734D500F0A3EAF0A3E9F007
:1034DC00E4A3F0A3F0900145E0FEA3E0FF90014AC5
:1034EC00E0FCA3E0FDC39FEC9E5035900144E02D21
:1034FC00FF900143E03CFE900147E0FBA3E0FAA300
:10350C00E0F9A3A3E0F5828C83121741FD12386C0D
:10351C0090014BE004F070BD90014AE004F080B5DE
:08352C0090014AE0FEA3E0FF5C
:013534002274
:103A1C001239B67598D0438920758DFFD28ED29904
:033A2C00023A8CCF
:0B3AEC00123AF7123AF7D291123AF7A3
:013AF70022AC
:1039CC00C291D290123AECC290123AF7123AF7C264
:0439DC0091023AF723
:0F3A8C00C291C290123AECD290123AF7023AF776
:10382C00E4FEC291EF339202A2029290123AF7D2C6
:10383C0091EF25E0FF123AF7123AF7C291123AF7DC
:10384C000EEEB408DDD290C291123AF7D291A2904A
:0F385C009202123AF7123AF7C291123AF7A20209
:01386B00223A
:1038E100E4FFD290FEC291123AEFA2909202EF252C
:1038F100E0FFA202E4334FFFC291123AF70EEEB499
:0E39010008E3D290C291123AEFC291123AF747
:01390F002295
:1033D600900216E0FEA3E07C002400FFEC3E900085
:1033E60005F0A3EFF0900218E0FF900002E4F0A3CE
:1033F600EFF0E4900000F0A3F0900002E0FEA3E0FE
:10340600FFC3900001E09F900000E09E50399002BB
:1034160015E0F4FF123A2F123A9B900004EFF0FDEC
:10342600900000E0FEA3E0FF900006E02FFF900072
:1034360005E03EFE12386C900001E004F070BA9090
:0D3446000000E004F080B2E4FDFF02143746
:1035A500900218E0FF900001E4F0A3EFF0900216FE
:1035B500E0FEA3E07C002400FFEC3E900003F0A3B6
:1035C500EFF0900215E0FF123A2FE4900000F09022
:1035D5000000E0FF7E00D3900002E09F900001E034
:1035E5009E401F900004E02FFF900003E03EFE1276
:1035F50037E8900005EFF0123A2F900000E004F054
:0836050080CDE4FDFF02143743
:1038A800900216E0FEA3E07C002400FFEC3EFE122E
:1038B8003B3E90021FEEF0A3EFF0900215E0FF12DE
:1038C8003A2F90021FE0FF123A2F90021FA3E0FF49
:0938D800123A2FE4FDFF0214373F
:10396E00900215E0F4FF123A2F900217E0FF123A80
:0A397E007A123A2FE4FDFF0214371D
:10274700123B24900006EEF0A3EFF0123B1B900023
:1027570000EEF0A3EFF0E025E0FF900000E033FE8D
:10276700EF2419FFEE3401FE7B017A0079027D0226
:102777007C00123453900001E025E0FF900000E058
:1027870033FEEF2410FFEE3401FE7B017A00790A55
:102797007D017C00123453900003E025E0FF900098
:1027A70002E033FEEF2410FFEE3401FE7B017A00D6
:1027B70079097D017C00123453900003E025E0FF86
:1027C700900002E033FEEF2413FFEE3401FE7B019D
:1027D7007A0079047D027C001234531237A19000ED
:1027E70008EFF0900003E025E0FF900002E033FEE1
:1027F700900007E02FFF900006E03ECF2414CF346F
:1028070001FE7B017A00790B7D017C001234539025
:102817000003E025E0FF900002E033FEEF2415FF00
:10282700EE3401FE900007E02FFF900006E03EFE29
:102837007B017A00790C7D017C00123453900215DC
:10284700E0FF123A2F900000E0FF123A2F900000AD
:10285700A3E0FF123A2F900002E0FF123A2F9000F8
:1028670002A3E0FF123A2F900004E0FF123A2F90E4
:102877000004A3E0FF123A2F90000BE0FF123A2F5B
:1028870090000CE0FF123A2F900009E0FF123A2F58
:1028970090000AE0FF123A2F900006A3E0FF123AD9
:0728A7002FE4FDFF021437CE
:10391000900215E0FF123A2F123BA1123A2F9002AB
:1039200018E0D3940140061237A1123A2FE4FDFFAC
:0339300002143747
:103988001228AEEF4E7003D38001C3E4FD40047FDC
:07399800298001FF12143722
:01399F002205
:1004D400900218E064086003020668900000F0A32C
:1004E400F0900218E0FFC3900001E09F900000E04C
:1004F40094005057900215E0F4FF123A2F123A9BE1
:10050400900002EFF0FE900000A3E02462FFEEFDF5
:100514007C00123AB8900001E02427FF900000E02C
:100524003400FE1237E8900002EFF0FE900000A3C2
:10053400E0245AFFEEFD7C00123AB8900001E0047A
:10054400F0709E900000E004F08096123B699001E8
:10055400D67408F0E4900000F0A3F09001D6E0FF18
:10056400C3900001E09F900000E094005043A3E09A
:1005740024AAFF123A68900000E0FCA3E0FDFB24EB
:1005840074F582E43401F583EFF0ED24AAFFEC3432
:1005940001FE74742BF582E43401F583E0FD123816
:1005A4006C900001E004F070B2900000E004F08070
:1005B400AAE4900000F0A3F0900218E0FF9000007D
:1005C400E0FCA3E0FDC39FEC9400504DAE05EE2487
:1005D40062FF74742EF582E43401F583E0FD7C003F
:1005E400123AB8900001E02427FF900000E03400A4
:1005F400FE1237E8900002EFF0FE900000A3E02422
:100604005AFFEEFD7C00123AB8900001E004F0704D
:10061400A7900000E004F0809F123B8C9001D674F8
:1006240008F0E4900000F0A3F09001D6E0FF900001
:1006340000E0FCA3E0FDC39FEC94005027ED24AA46
:10064400FF123A68900000A3E0247CF582E43401B0
:10065400F583EFF0900001E004F070CD900000E02D
:1006640004F080C5900218E0645A600302076C909D
:100674000000F0A3F0900215E0F4FF123A2F123AB2
:100684009B900002EFF0FE900000A3E0FFEEFD7CE3
:1006940000123AB8900001E004F07006900000E007
:1006A40004F0C3900001E0943C900000E09400400A
:1006B400C4E4900000F0A3F0900215E0F4FF123AB5
:1006C4002F123A9B900002EFF0FE900000A3E0246A
:1006D4003CFFEEFD7C00123AB8900001E02494FF48
:1006E400900000E03400FE900002E0FD12386C90AF
:1006F4000001E004F07006900000E004F0C39000F4
:1007040001E0941E900000E0940040AC123B4DE4E4
:10071400900000F0A3F0900000E0FEA3E0FFC3947B
:100724003CEE94005042EF24B2FF123A689000006D
:10073400E0FCA3E0FDFB2474F582E43401F583EFCF
:10074400F0ED24B2FFEC3401FE74742BF582E43432
:1007540001F583E0FD12386C900001E004F070B6FE
:10076400900000E004F080AE900218E06440600362
:10077400020803900000F0A3F0900215E0F4FF12C9
:100784003A2F123A9B900002EFF0FE900000A3E093
:10079400246AFFEEFD7C00123AB8900001E004F0F8
:1007A4007006900000E004F0C3900001E0944090D3
:1007B4000000E0940040C2123B5BE4900000F0A310
:1007C400F0900000E0FEA3E0FFC39420EE940050FC
:1007D4002EEF248AFF123A68900002EFF0FD900099
:1007E40001E0246AFF900000E03401FE12386C90AE
:1007F4000001E004F070CA900000E004F080C2E45C
:05080400FDFF021437A6
:10375600900218E0B40803D38001C34006E4FD7F5D
:103766000C8034900215E0FF123A2F123A42E49090
:103776000000F0900000E0FFC39408501774012F7A
:10378600F582E43400F583E0FF123A2F900000E062
:0A37960004F080DFE4FDFF12143799
:0137A0002206
:10184A00900215E0F4FF123A2F123A9BEF3395E01B
:10185A00900029EFF0900215E0F4FF123A2F123AA5
:10186A009BEF3395E090002AEFF0900215E0F4FF29
:10187A00123A2F123A9BEF3395E0EF900001F0A352
:10188A00E4F0900215E0F4FF123A2F123A9BEF337C
:10189A0095E0FE900001E04EF0A3E04FF0900215B3
:1018AA00E0F4FF123A2F123A9BEF3395E0EF9000E3
:1018BA0003F0A3E4F0900215E0F4FF123A2F123A73
:1018CA009BEF3395E0FE900003E04EF0A3E04FF06B
:1018DA00900215E0F4FF123A2F123A9BEF3395E08B
:1018EA00900028EFF0900215E0F4FF123A2F123A16
:1018FA009BEF3395E0900005EFF0123BA1EFC39404
:10190A00014003D38001C34007E4FD7F14021A3B60
:10191A00900028E0FFB43808900000744FF080204F
:10192A00EF6401600EEF64026009EF64046004EF83
:10193A00B40608900000745FF08005E4900000F09F
:10194A00900000E0FF24A16021241060030219FD29
:10195A00900003E0FDA3E0900007CDF0A3EDF07E38
:10196A00007B017A0079070219F3900003E0FFA3D4
:10197A00E090001DCFF0A3EFF0E4900020F090007B
:10198A0005E0900021F0900001E0FFA3E09000251F
:10199A00CFF0A3EFF0900028E024FE600C24FE6054
:1019AA002524FE60292405802D90001F7402F090E2
:1019BA000215E0F4FF123A2F123A9BEF3395E090AA
:1019CA000027EFF0801690001F7404F0800E90003C
:1019DA001F7406F0800690001F7401F0900000E06A
:1019EA00FF7E007B017A00791D1230E5900006EF38
:1019FA00F08006900006741EF0900006E024E26073
:101A0A002614601724FE600D24FE60152423701D21
:101A1A00E4FDFF801CE4FD7F258016E4FD7F208025
:101A2A0010E4FD7F13800AE4FD7F298004E4FD7F32
:041A3A00011214374A
:011A3E002285
:10244D00123BA1EFC394014003D38001C34007E4C5
:10245D00FD7F140225B6900216E07064900218E01C
:10246D007005123B10804A900215E0F4FF123A2FCE
:10247D00123A9BEF3395E0EF900004F0A3E4F09057
:10248D000215E0F4FF123A2F123A9BEF3395E0FE5E
:10249D00900004E04EFEA3E04FFF900004EEF0A389
:1024AD00EFF0123A55EE701FEF24E0600C2420700F
:1024BD0016E4FDFF121437800EE4FD7F1E0225B6D3
:1024CD00E4FD7F220225B6123B1BEF25E0FFEE3324
:1024DD00FEEF2419FFEE3401FE7B017A0079007DB9
:1024ED00027C00123453900001E025E0FF900000C3
:1024FD00E033FEEF2413FFEE3401FE7B017A007909
:10250D00027D027C00123453900001E025E0FF9023
:10251D000000E033FEEF2410FFEE3401FE7B017A64
:10252D000079087D017C00123453900008E0FF64AF
:10253D00026008EF640460030225CE900217E0707C
:10254D000C900006F0A304F0FF7E0080719002173E
:10255D00E0B40112900002E0FEA3E0FF900006EE51
:10256D00F0A3EFF08058900217E064027028123B40
:10257D0024900002E0B5060BA3E0B50706E4FD7F4D
:10258D001F8026123B24EF2401FFE43EFE9000063F
:10259D00F0A3EFF08028900217E0B40324123B243F
:1025AD00EF64014E7006FD7F1F021437123B24EFBE
:1025BD0024FFFFEE34FFFE900006F0A3EFF0123A79
:0125CD00F815
:0125CE0022EA
:1036B500900215E0F4FF123A2F123A9BEF3395E092
:1036C500EF900000F0A3E4F0900215E0F4FF123A49
:1036D5002F123A9BEF3395E0FE900000E04EFEA3DB
:1036E500E04FFF900000EEF0A3EFF0121A3FEF70ED
:1036F50008EE7005E4FDFF8004E4FD7F1E1214371B
:0137050022A1
:0B25CF0090000AEBF0A3EAF0A3E9F093
:1025DA00123BA1EFC394014003D38001C34007E437
:1025EA00FD7F1402273E900216E0FF30E02A541FB6
:1025FA00FF7E00123A55EE700CEF24E07007E4FDFE
:10260A007F1E02273E900217E0FF90000DE0FBA319
:10261A00E0FAA3E0F9E4802A123B1B900010EEF0E6
:10262A00A3EFF04E7006FD7F1802273E900216E0D7
:10263A00FEA3E0FDEDFF90000DE0FBA3E0FAA3E0AE
:10264A00F9EE8FF0121805123B1B900010EEF0A362
:10265A00EFF0E025E0FF900010E033FEEF2410FFDA
:10266A00EE3401FE7B017A0079147D017C0012347C
:10267A0053900011E025E0FF900010E033FEEF24B4
:10268A0019FFEE3401FE7B017A0079127D027C008B
:10269A00123453900013E025E0FF900012E033FE5D
:1026AA00EF2413FFEE3401FE7B017A0079167D02D6
:1026BA007C00123453900016E0F9A3E0FF90000A60
:1026CA00E0FBA3E0FAA3E0C98FF01218059000140A
:1026DA00E07004A3E0644F7005FD7F1380569000FC
:1026EA000DE0FBA3E0FAA3E0F91217A2FFC39000E2
:1026FA0017E09F900016E095F05006E4FD7F2280D7
:10270A0033900013E025E0FF900012E033FEEF243F
:10271A0010FFEE3401FE7B017A0079187D017C00FE
:10272A00123453900018E0B40103D38001C3400A65
:0C273A00E4FD7F131214377F02227F00A1
:012746002270
:10360D0090000D7401F0A37400F0A37400F07B0121
:10361D007A0079021225CFEF703A1237A1EF20E030
:10362D0006E4FD7F14802A900218E0FF900004E468
:10363D00F0A3EFF0900215E0FF123A2F900002A3D5
:10364D00E0FF123A2F900000A3E0FF123A2FE4FDA5
:04365D00FF1214370D
:013661002246
:102AFA0090000D7401F0A37400F0A37400F07B0140
:102B0A007A0079021225CFEF6003022C191237A13D
:102B1A00EF20E007E4FD7F14022C16900218E0FF74
:102B2A007E00900004EEF0A3EFF0900001E02FFF8A
:102B3A00900000E03EFEC3900003E09F900002E098
:102B4A009E506CE4900007F0900000E0FEA3E0FFC6
:102B5A00C3900003E09FFF900002E09EFE900007F2
:102B6A00E0C39FE49E5042900215E0F4FF123A2F10
:102B7A00123A9B900006EFF0A3E0FF900001E02FCD
:102B8A00FD900000E03400FC9000237401F0A3746F
:102B9A0000F0A37406F07B017A007F017E00122CFC
:102BAA001A900007E004F0809FE4FD7F05805DE451
:102BBA00900007F0900007E0FFD3900005E09F9097
:102BCA000004E094004042900215E0F4FF123A2F0C
:102BDA00123A9B900006EFF0A3E0FF900001E02F6D
:102BEA00FD900000E03400FC9000237401F0A3740F
:102BFA0000F0A37406F07B017A007F017E00122C9C
:0F2C0A001A900007E004F080ABE4FDFF121437CE
:012C19002298
:102E160090000D7401F0A37400F0A37400F07B0120
:102E26007A0079021225CFEF6003022F071237A12D
:102E3600EF20E007E4FD7F14022F04900218E0FF64
:102E46007E00900004EEF0A3EFF0900001E02FFF6B
:102E5600900000E03EFEC3900003E09F900002E079
:102E66009E5057E4900006F0900000E0FEA3E0FFBD
:102E7600C3900003E09FFF900002E09EFE900006D4
:102E8600E0FD7C00C39FEC9E502A900001E02DFDE2
:102E9600900000E03CFC900023E4F0A3F0A374FF54
:102EA600F07B017A007F017E00122C1A900006E06A
:102EB60004F080B4E4FD7F058044E4900006F090C1
:102EC6000006E0FF7E00D3900005E09F900004E03E
:102ED6009E4028900001E02FFD900000E03EFC900F
:102EE6000023E4F0A3F0A374FFF07B017A007F01D6
:102EF600122C1A900006E004F080C4E4FDFF1214C0
:012F06003793
:012F070022A7
:1022BB0090000D7401F0A37400F0A37400F07B0187
:1022CB007A0079021225CFEF600302244C1237A15A
:1022DB00EF20E007E4FD7F14022449900218E0FF91
:1022EB007E00900004EEF0A3EFF0900001E02FFFD2
:1022FB00900000E03EFEC3900003E09F900002E0E0
:10230B009E40030223B5E4900009F0900000E0FE2C
:10231B00A3E0FFC3900003E09FFF900002E09EFE4E
:10232B00900009E0C39FE49E5079900215E0F4FF02
:10233B00123A2F123A9B900008EFF0A3E0FF9000A7
:10234B0001E02FFD900000E03400FC9000237401AD
:10235B00F0A37400F0A37407F07B017A00E4FFFE96
:10236B00122C1A900007E0FFA3E05F900006F0909C
:10237B000009E0FF900001E02FFD900000E0340029
:10238B00FC9000237401F0A37400F0A37406F07B9F
:10239B00017A007F017E00122C1A900009E004F0F4
:1023AB00022316E4FD7F05022449E4900009F09016
:1023BB000009E0FFD3900005E09F900004E094003B
:1023CB004079900215E0F4FF123A2F123A9B9000DD
:1023DB0008EFF0A3E0FF900001E02FFD900000E07C
:1023EB003400FC9000237401F0A37400F0A3740775
:1023FB00F07B017A00E4FFFE122C1A900007E0FF3D
:10240B00A3E05F900006F0900009E0FF900001E070
:10241B002FFD900000E03400FC9000237401F0A32A
:10242B007400F0A37406F07B017A007F017E00122A
:10243B002C1A900009E004F00223BAE4FDFF1214F9
:01244B003759
:01244C00226D
:0D1F8B00900011E4F0A3EFF090000BE0FFD8
:0E1F980090000DECF0A3EDF0A3EAF0A3EBF047
:101FA600EF6402600302204D90000EE025E0FF90F2
:101FB600000DE033FEEF2415FFEE3401FE7B017ABF
:101FC6000079137D017C00123453900012E024FF47
:101FD600FF900011E034FFFE900013E0FD7C00123C
:101FE6001790EF2401FFE43E900017F0A3EFF0E412
:101FF600A3F0A3F0900013E0FF900019E0FCA3E02B
:10200600FDC39FEC94004003022124900018E02DAC
:10201600FD900017E03CFC9000237401F0A37400CF
:10202600F0A37414F07B017A00E4FFFE122C1A90E0
:102036000014E0FF123A2F90001AE004F070B590F9
:102046000019E004F080AD90000EE025E0FF90005E
:102056000DE033FE900012E02FFF900011E03ECF1E
:102066002414CF3401FE7B017A0079157D017C00B2
:1020760012345390000EE025E0FF90000DE033FE91
:10208600EF2415FFEE3401FE900012E02FFF9000C2
:1020960011E03EFE7B017A0079167D017C00123448
:1020A60053900015E0FDA3E0C39D900013F0EDFFF3
:1020B600900010E02FFF90000FE03400CF2401CFF6
:1020C6003400900017F0A3EFF0E4A3F0A3F0900023
:1020D60013E0FF900019E0FCA3E0FDC39FEC940021
:1020E600503C900018E02DFD900017E03CFC90005D
:1020F600237401F0A37400F0A37414F07B017A003A
:10210600E4FFFE122C1A900014E0FF123A2F900002
:0E2116001AE004F070B8900019E004F080B0F8
:012124002298
:0E1DE30090000DECF0A3EDF0A3EAF0A3EBF0FE
:101DF100EF64026003021EA190000EE025E0FF9057
:101E0100000DE033FEEF2415FFEE3401FE7B017A75
:101E11000079147D017C00123453900012E024FFFC
:101E2100FF900011E034FFFE900014E0FBFD7C0008
:101E3100121790EF2401FFE43E900019F0A3EFF098
:101E4100900013E06B7056900016F0900014E0FFC4
:101E5100900016E0C39F4003021F88900215E0F432
:101E6100FF123A2F123A9B900015EFF0A3E0FF907A
:101E7100001AE02FFD900019E03400FC900023745B
:101E810001F0A37400F0A37415F07B017A007F01C7
:101E91007E00122C1A900016E004F080AE021F8220
:101EA10090000EE025E0FF90000DE033FE9000125F
:101EB100E02FFF900011E03ECF2414CF3401FE7BD0
:101EC100017A0079177D017C0012345390000EE0F5
:101ED10025E0FF90000DE033FEEF2415FFEE340105
:101EE100FE900012E02FFF900011E03EFE7B017A90
:101EF1000079187D017C00123453900017E0FDA396
:101F0100E0C39D900014F0EDFF900010E02FFF90D2
:101F1100000FE03400CF2401CF3400900019F0A36A
:101F2100EFF0900014E0FF900013E06F7053900009
:101F310016F0900014E0FF900016E0C39F50489007
:101F41000215E0F4FF123A2F123A9B900015EFF0C0
:101F5100A3E0FF90001AE02FFD900019E03400FC8F
:101F61009000237401F0A37400F0A37415F07B01B9
:101F71007A007F017E00122C1A900016E004F08096
:091F8100B1900014E0FF227F0082
:011F8A002234
:0E12170090000DECF0A3EDF0A3EAF0A3EBF0D5
:10122500EF6402600302130E90000EE025E0FF90CC
:10123500000DE033FEEF2415FFEE3401FE7B017A4D
:101245000079147D017C00123453900012E024FFD4
:10125500FF900011E034FFFE900014E0FBFD7C00E0
:10126500121790EF2401FFE43E90001BF0A3EFF06E
:10127500900013E06B600302142E900016F09000AE
:1012850014E0FF900016E0C39F400302143490025F
:1012950015E0F4FF123A2F123A9B900017EFF090E9
:1012A5000016E0FF90001CE02FFD90001BE03400CD
:1012B500FC9000237401F0A37400F0A37418F07B74
:1012C500017A00E4FFFE122C1A900018E0FF90004E
:1012D50017E05F900015F0A3E0FF90001CE02FFDE4
:1012E50090001BE03400FC9000237401F0A374000F
:1012F500F0A37415F07B017A007F017E00122C1A91
:10130500900016E004F002128390000EE025E0FF45
:1013150090000DE033FE900012E02FFF900011E0E9
:101325003ECF2414CF3401FE7B017A0079197D016B
:101335007C0012345390000EE025E0FF90000DE094
:1013450033FEEF2415FFEE3401FE900012E02FFF6F
:10135500900011E03EFE7B017A00791A7D017C0048
:10136500123453900019E0FDA3E0C39D900014F0E2
:10137500EDFF900010E02FFF90000FE03400CF2428
:1013850001CF340090001BF0A3EFF0900014E0FFB4
:10139500900013E06F600302142E900016F0900089
:1013A50014E0FF900016E0C39F400302143490023E
:1013B50015E0F4FF123A2F123A9B900017EFF090C8
:1013C5000016E0FF90001CE02FFD90001BE03400AC
:1013D500FC9000237401F0A37400F0A37418F07B53
:1013E500017A00E4FFFE122C1A900018E0FF90002D
:1013F50017E05F900015F0A3E0FF90001CE02FFDC3
:1014050090001BE03400FC9000237401F0A37400ED
:10141500F0A37415F07B017A007F017E00122C1A6F
:10142500900016E004F00213A3900014E0FF227F61
:0114350000B6
:011436002293
:10080900123BA1EFC394014003D38001C34003020B
:1008190008F4900217E054F87014123B1B90000082
:10082900EEF0A3EFF04E700DFD7F18020ACBE4FD48
:100839007F22020ACB900001E025E0FF900000E052
:1008490033FEEF2410FFEE3401FE7B017A007906B6
:100859007D017C00123453900001E025E0FF9000F7
:1008690000E033FEEF2419FFEE3401FE7B017A002C
:1008790079027D027C00123453900003E025E0FFE9
:10088900900002E033FEEF2413FFEE3401FE7B01FA
:100899007A0079047D027C00123453900006E070DE
:1008A90004A3E0644F7006FD7F13020ACB90000396
:1008B900E025E0FF900002E033FEEF2410FFEE3464
:1008C90001FE7B017A00790B7D017C001234539083
:1008D900000BE0FF6402600CEF64046007E4FD7F35
:1008E90013020ACB1237A1EF20E007E4FD7F1402BF
:1008F9000ACB900216E07009123B24900008EE80A2
:1009090009900216E0FF900008E4F0A3EFF09000D0
:1009190004E0FEA3E0FFD3900009E09F900008E007
:100929009E4007E4FD7F22020ACB900215E0FF12E8
:100939003A2F900217E020E2030209D25403700310
:10094900020A69900217E0540364017032900008AA
:10095900A3E0A3F090000AE0F9FF900004E0FAA3F5
:10096900E0FBC39FEA94005003020AC8900002E02A
:10097900FCA3E0FD121F8B90000AE004F080D590E3
:100989000217E0540364027039900004A3E0900058
:100999000AF090000AE0F9FFD3900009E09F900067
:1009A90008E094004003020AC8900002E0FCA3E0BA
:1009B900FDA3E0FAA3E0FB121F8B90000AE014F0FC
:1009C90080D0E4FD7F22020ACB900217E054037025
:1009D9001F900008F0A304F0900002E0FCA3E0FDE2
:1009E900A3E0FAA3E0FB900011E4F0A304020ABD1E
:1009F900900217E0540364017042900004E0FAA3E6
:100A0900E0FB900008E06A7003A3E06B60279000A8
:100A190009E004F07006900008E004F0900002E09C
:100A2900FCA3E0FD900008E0FFA3E0900011CFF0E7
:100A3900A3EF020ABDE4FD7F22020ACB900217E070
:100A490054036402703E900008E07004A3E064015E
:100A5900602C900009E024FFF0900008E034FFF0DA
:100A6900900002E0FCA3E0FDA3E0FAA3E0FB900004
:100A790008E0FFA3E0900011CFF0A3EF8036E4FD7A
:100A89007F22803E900217E05403FFBF032B9000A2
:100A990004E0FAA3E0FB900008EAF0A3EBF0900071
:100AA90002E0FCA3E0FD900008E0FFA3E090001144
:100AB900CFF0A3EF121F928006E4FD7F228003E4AA
:050AC900FDFF121437CF
:010ACE002205
:100FD300123BA1EFC394014003D38001C34003023A
:100FE30010C6900217E054F87014123B1B900000D7
:100FF300EEF0A3EFF04E700DFD7F18021213E4FD27
:101003007F22021213123B1B900000EEF0A3EFF0BD
:10101300E025E0FF900000E033FEEF2410FFEE3404
:1010230001FE7B017A0079067D017C001234539026
:101033000001E025E0FF900000E033FEEF2419FFFC
:10104300EE3401FE7B017A0079027D027C001234CA
:1010530053900003E025E0FF900002E033FEEF240D
:1010630013FFEE3401FE7B017A0079047D027C00DC
:10107300123453900006E07004A3E0644F7006FD41
:101083007F13021213900003E025E0FF900002E0BB
:1010930033FEEF2410FFEE3401FE7B017A00790A60
:1010A3007D017C0012345390000AE0FF6402600C5F
:1010B300EF64046007E4FD7F130212131237A1EFFC
:1010C30020E007E4FD7F14021213900216E070097A
:1010D300123B24900008EE8009900216E0FF900076
:1010E30008E4F0A3EFF0900004E0FEA3E0FFD39048
:1010F3000009E09F900008E09E4007E4FD7F220284
:101103001213900217E030E2030211A5900217E0D8
:101113005403701F900008F0A304F0900002E0FC59
:10112300A3E0FDA3E0FAA3E0FB900011E4F0A30425
:101133000211EF900217E054036401704190000420
:10114300E0FAA3E0FB900008E06A7003A3E06B60A1
:1011530026900009E004F07006900008E004F09087
:101163000002E0FCA3E0FD900008E0FFA3E0900094
:1011730011CFF0A3EF8075E4FD7F220212139002DA
:1011830017E054036402703E900008E07004A3E08B
:101193006401602C900009E024FFF0900008E03423
:1011A300FFF0900002E0FCA3E0FDA3E0FAA3E0FB64
:1011B300900008E0FFA3E0900011CFF0A3EF802C94
:1011C300E4FD7F22804A900004E0FAA3E0FB900054
:1011D30008EAF0A3EBF0900002E0FCA3E0FD90002E
:1011E30008E0FFA3E0900011CFF0A3EFF090021806
:1011F300E0900013F090000AE0FF121DE390000B53
:10120300EFF090000BE0FD60047F0C8003E4FDFF32
:031213001214377B
:0112160022B5
:100D8C00123BA1EFC394014003D38001C340030283
:100D9C000E7F900217E054F87014123B1B90000069
:100DAC00EEF0A3EFF04E700DFD7F18020FCFE4FDB7
:100DBC007F22020FCF123B1B900000EEF0A3EFF04E
:100DCC00E025E0FF900000E033FEEF2410FFEE344E
:100DDC0001FE7B017A0079067D017C001234539070
:100DEC000001E025E0FF900000E033FEEF2419FF46
:100DFC00EE3401FE7B017A0079027D027C00123414
:100E0C0053900003E025E0FF900002E033FEEF2456
:100E1C0013FFEE3401FE7B017A0079047D027C0025
:100E2C00123453900006E07004A3E0644F7006FD8A
:100E3C007F13020FCF900003E025E0FF900002E04B
:100E4C0033FEEF2410FFEE3401FE7B017A00790AA9
:100E5C007D017C0012345390000AE0FF6402600CA8
:100E6C00EF64046007E4FD7F13020FCF1237A1EF8C
:100E7C0020E007E4FD7F14020FCF900216E070090A
:100E8C00123B24900008EE8009900216E0FF9000BF
:100E9C0008E4F0A3EFF0900004E0FEA3E0FFD39091
:100EAC000009E09F900008E09E4007E4FD7F2202CD
:100EBC000FCF900217E030E203020F50900217E0C0
:100ECC005403701F900008F0A304F0900002E0FCA3
:100EDC00A3E0FDA3E0FAA3E0FB900011E4F0A3046F
:100EEC00020FAB900217E0540364017033900004BE
:100EFC00E0FAA3E0FB900008E06A7003A3E06B60EB
:100F0C0018900009E004F07006900008E004F090DE
:100F1C000002E0FCA3E0FD8039E4FD7F22020FCF4C
:100F2C00900217E054036402704F900008E07004C4
:100F3C00A3E06401603D900009E024FFF0900008FC
:100F4C00E034FFF0900002E0FCA3E0FDA3E0FAA384
:100F5C00E0FB900008E0FFA3E0900011CFF0A3EFBE
:100F6C00F0900218E0900013F090000AE0FF121DC0
:100F7C00E3803DE4FD7F22804A900004E0FAA3E088
:100F8C00FB900008EAF0A3EBF0900002E0FCA3E079
:100F9C00FD900008E0FFA3E0900011CFF0A3EFF06C
:100FAC00900218E0900013F090000AE0FF12121764
:100FBC0090000BEFF090000BE0FD60047F0C8003C1
:060FCC00E4FDFF121437E2
:010FD20022FC
:10353500900218E064046006E4FD7F0C805EE49070
:103545000000F0900215E0F4FF123A2F123A9B901A
:103555000000E02468F582E43401F583EFF0900083
:1035650000E004F0E0C3940440D9900215E0FF1296
:103575003A2F122F08EE7027EF24FE60121460090F
:103585002403701BE4FDFF8013E4FD7F15800D7F90
:0F3595001E7E001237E8EF540FFD7F0912143726
:0135A4002204
:1032A000900214E054FC64806003023342A3E054B3
:1032B000FE12182432FA0232FD04332D0633060AB8
:1032C00033180E33212033002233032433092633ED
:1032D0000C28332782332484330FA43312B03330C5
:1032E000B2332AC03339D03336D23315D63333DC38
:1032F000331BE0331EE40000333C0233D60235A515
:103300000227470239100239880204D402375602D4
:10331000244D02360D022AFA022E1602184A0236EF
:10332000B502353502000002000002000002396ECD
:10333000020809020FD3020D8C0222BBE4FD7F2795
:0A3340008004E4FD7F2812143722F8
:10143700A905EFB42A004003021637901449F8288B
:1014470028730214C70214CF0214D70214E402143B
:10145700EC0214F40214FC02150402150C02151414
:10146700021521021529021531021539021541020B
:10147700154802154F02155602155D02158802150B
:101487006502156C02157302157A0215810215881B
:1014970002158802158F0215970215A40215B102CD
:1014A70015BE0215CA0215D60215E20215EE02157F
:1014B700FA02160602161202161E02162502162C2C
:1014C7009002217490021631900221746102163144
:1014D7009002217461F0A37408F002163F90022174
:1014E700746202163190022174620215A9900221DA
:1014F70074620215B690022174620215C39002212C
:10150700746302163190022174630215A9900221B7
:101517007463F0A374C0F002163F90022174640252
:101527001631900221746502163190022174670208
:101537001631900221746802163190022174688076
:1015470061900221746880679002217468806D90B1
:101557000221746880729002217469021631900228
:10156700217469804A900221746980509002217425
:101577006980559002217469805A900221746980AC
:101587005F9002217469801A900221746A021631F1
:10159700900221746AF0A37480F002163F90022132
:1015A700746AF0A37481F002163F900221746AF006
:1015B700A37482F002163F900221746AF0A3748329
:1015C700F08075900221746AF0A37484F0806990AA
:1015D7000221746AF0A37485F0805D900221746A19
:1015E700F0A37486F08051900221746AF0A3748787
:1015F700F08045900221746AF0A37488F0803990D6
:101607000221746AF0A37489F0802D900221746A14
:10161700F0A3748AF08021900221746D800C9002EF
:1016270021746E8005900221746FF0A3E4F08008A6
:1016370074EE900221F0A3F0AF01900221E0F0A335
:04164700E04FF0225E
:103706007F3B123A2F7FAA123A2FE4FF123A2F7FFD
:1037160040123A2F7F0A123A2F7F50123A2F7F69B2
:10372600123A2F7F6E123A2F7F74123A2F7F611250
:103736003A2F7F72123A2F7FEE123A2F7FDD123A1E
:103746002F7FCC123A2F7FBB123A2F7FAA023A2F35
:0E3A9B003099FDC2923098FDAF99C298D29238
:013AA90022FA
:043BA700EFA2D02297
:073B3600E4FF0FEFB405FBF3
:013B3D002265
:103A2F00AE073099FDAF06123BA7929BD2928F99AA
:033A3F00C2992207
:10393300E4FDFC123A9B74142DF58274023CF5836A
:0D394300EFF00DBD00010CED64054C70E6C9
:013950002254
:0E3AAA00900221E0FF123A2FA3E0FF023A2F14
:0B3B04004801E600010203040506076B
:1039A000E49001D7F0A3F0A3F0A3F0A3F0A304F0F8
:0639B000E4A3F0FEFF227B
:1039E0009001D7EEF0A3EFF09001DBE4F0A304F038
:0439F000E4FEFF22D0
:0C3AF8009001DBEEF0A3EFF0E4FEFF22F3
:093B1B009001D7E0FEA3E0FF22B7
:093B24009001DBE0FEA3E0FF22AA
:103A420078CE7C017D017B017A0179DE7E007F08E0
:033A520002171B3D
:063BA1009001DDE0FF22AF
:102F0800E4900004F09001DDE054FEF07F1E7E00A6
:102F18001237E8900001EFF07003022FEBE4900005
:102F280002F0900002E0FE246AFFEEFD7C00123AF7
:102F3800B8900002E004F0E0C3943C40E5E490005F
:102F480002F0900002E0FE24A6FF74682EF582E4E9
:102F58003401F583E0FD7C00123AB8900002E004E9
:102F6800F0E0C3940440DB123B5BE4900002F09075
:102F78000002E0FFC394205032EF24D0FFE433FE78
:102F88001237E8900003EFF0900002E0248AFF1265
:102F98003A68AC07900004E0FE900003E06FFDEE95
:102FA8004DA3F0900002E004F080C4900004E0D348
:102FB80094009000014005E014F080037403F09041
:102FC8000001E0FD7F1E7E0012386C900004E0D303
:102FD80094004009E49001DDF0FE7F022290000198
:102FE800E07004FE7F03229001DD74FFF0E4FEFF31
:012FF80022B6
:102FF9007F577E001237E89001F9EFF0D394034030
:10300900037F0322E49001FAF09001FAE0FFC394F0
:10301900085050EF2427FFE433FE1237E89001FAF5
:10302900E0FE24FBF582E43401F583EFF0EE245A47
:10303900FF74E62EF582E43401F583E0FD7C00128D
:103049003AC59001FAE0FE2462FF74FB2EF582E492
:103059003401F583E0FD7C00123AC59001FAE004E1
:10306900F080A6123B69E49001FAF09001FAE0FFC2
:10307900C39408504BEF24AAFF123A689001FAE072
:10308900FE24FBF582E43401F583EFF074FB2EF5A1
:1030990082E43401F583E0FF746C2EF582E4340197
:1030A900F583E06F60129001F9E004F0E0FD7F57CD
:1030B9007E0012386C7F02229001FAE004F080ABA6
:1030C9009001F9E0D394004009E4F0FD7F57FE1226
:0B30D900386C9001DDE04402F07F0045
:0130E40022C9
:1031C800E490020BF07FEE123A7A90020BE0FE24B4
:1031D800CEF582E43401F583EFF074CE2EF582E467
:1031E8003401F583E0FF74DE2EF582E43401F583C3
:1031F800EFF0EE2427FFE433FE90020BE024CEF537
:1032080082E43401F583E0FD12386C90020BE0FE95
:103218002462FF74CE2EF582E43401F583E0FD7C50
:1032280000123AB890020BE0FE245AFF74E62EF51D
:1032380082E43401F583E0FD7C00123AC590020B6C
:10324800E004F0E0C3940850030231CD123B69E476
:1032580090020BF090020BE0FFC394085039EF2462
:10326800AAFF123A6890020BE0FE2403F582E434C8
:1032780002F583EFF0EE2430FFE43402FE90020BF7
:10328800E02403F582E43402F583E0FD12386C9003
:07329800020BE004F080BD11
:01329F00220C
:073B4600123B10E4FEFF2218
:0B3B10007F107E001239E0E4FEFF226F
:1037A100123B1BEF25E0FFEE33FEEF2419FFEE3451
:1037B10001FE7B017A00790D7D027C001234539069
:1037C100000EE025E0FF90000DE033FEEF2412FF34
:1037D100EE3401FE7B017A00790F7D017C00123409
:0637E1005390000FE0FF11
:0137E70022BF
:0836620090021CEEF0A3EFF052
:10366A00123BA190021EEFF01237A190021CE0FC5F
:10367A00A3E0FDEC7032ED14601414601E24027095
:10368A0027EF5481FEBE81037F00227F2222EF545E
:10369A0082FEBE82037F00227F2222EF5484FFBF74
:0A36AA0084037F00227F22227F228A
:0136B40022F3
:082D19009001EEE0FEA3E0FFD3
:0E2D21009001EEEEF0A3EFF0A3ECF0A3EDF0C6
:102D2F00E025E0FF9001F0E033FEEF2411FFEE34D9
:102D3F0001FE7B017A0179F27D027C0012345390FF
:102D4F0001EEE0FEA3E0FF9001F2E0B5060EA3E076
:102D5F00B507099001F0E0FEA3E0FF229001F1E03A
:102D6F0025E0FF9001F0E033FEEF2410FFEE340179
:102D7F00FE7B017A0179F87D017C001234539001BA
:102D8F00F8E0FF644F6005EF643F703B9001F1E0A6
:102D9F0025E0FF9001F0E033FEEF2415FFEE340144
:102DAF00FE7B017A0179F47D027C0012345390018D
:102DBF00F4E0FCA3E0FDF44C600D122D19EFF4705C
:102DCF0003EE640F6001229001F1E025E0FF900116
:102DDF00F0E033FEEF2417FFEE3401FE7B017A01A2
:102DEF0079F67D027C001234539001F6E0FCA3E0EB
:102DFF00FDF44C600D122D19EFF47003EE640F60AB
:062E0F0001227E0F7FFF8F
:012E1500229A
:073B3E007D107C00122D2117
:013B4500225D
:08212500900019EEF0A3EFF0A9
:10212D00123B1B90001BEEF0A3EFF0E025E0FF90BB
:10213D00001BE033FEEF2413FFEE3401FE7B017A2A
:10214D0000791D7D027C0012345390001EE025E0C5
:10215D00FF90001DE033FEEF2411FFEE3401FE7BF6
:10216D00017A0079237D027C00123453900019E02E
:10217D00FEA3E0FF900023E0B5060BA3E0B5070634
:10218D0090001D02228C90001EE025E0FF90001DA6
:10219D00E033FEEF2415805290001FE0FEA3E0FF18
:1021AD00F44E605AEF25E0FFEE33FEEF2411FFEE03
:1021BD003401FE7B017A0079237D027C00123453B9
:1021CD00900019E0FEA3E0FF900023E0B5060BA3FD
:1021DD00E0B5070690001F02228C900020E025E05C
:1021ED00FF90001FE033FEEF2417FFEE3401FE7B5E
:1021FD00017A00791F7D027C00123453809A900081
:10220D001CE025E0FF90001BE033FEEF2410FFEEF5
:10221D003401FE7B017A0079257D017C0012345357
:10222D00900025E0FF644F6005EF643F707B9000E8
:10223D001CE025E0FF90001BE033FEEF24158055D8
:10224D00900021E0FEA3E0FFF44E605DEF25E0FF7E
:10225D00EE33FEEF2411FFEE3401FE7B017A00799F
:10226D00237D027C00123453900019E0FEA3E0FFA1
:10227D00900023E0B5060EA3E0B50709900021E01C
:10228D00FEA3E0FF22900022E025E0FF900021E078
:10229D0033FEEF2417FFEE3401FE7B017A00792126
:0D22AD007D027C0012345380977E007FFF7D
:0122BA002201
:103A5500122125EFF44E7004FE7F20221239E0E496
:023A6500FEFF62
:013A6700223C
:102C1A0090001DEEF0A3EFF0A3ECF0A3EDF0A3EA11
:042C2A00F0A3EBF038
:102C2E00123B1BEF25E0FFEE33FEEF2419FFEE34CF
:102C3E0001FE7B017A0079267D027C0012345390CE
:102C4E00001DE07002A3E07078900021E07002A3F6
:102C5E00E07022900027E025E0FF900026E033FE92
:102C6E00EF2413FFEE3401FE7B017A0079217D0201
:102C7E007C00123453D3900022E09400900021E0A7
:102C8E00940140067401F0A3E4F0900027E025E0E3
:102C9E00FF900026E033FEEF2415FFEE3401FE9088
:102CAE000020E02FFF90001FE03EFE900021E0FC90
:102CBE00A3E0FDA3E0FBA3E0FAA3E0F912345380F6
:102CCE004190001DE07004A3E06401703590002770
:102CDE00E025E0FF900026E033FEEF2415FFEE34F2
:102CEE0001FE900020E02FFF90001FE03EFE9000BE
:102CFE0021E0FCA3E0FDA3E0FBA3E0FAA3E0F912C0
:0A2D0E0034C5900021E0FEA3E0FFB1
:012D18002298
:100ACF009001497401F0A37400F0A3743FF07B0010
:060ADF007A017D507C004D
:100AE500900143EEF0A3EFF0A3ECF0A3EDF0A3EA41
:040AF500F0A3EBF08F
:100AF900E4900162F0A3F0A3F0C200900145E0FE8A
:100B0900A3E07803CEC313CE13D8F9FF90014CEEBE
:100B1900F0A3EFF0900147E0FEA3E07803CEC31302
:100B2900CE13D8F9FF90014CE0FCA3E0FDC39FEC84
:100B39009E4003020D87ED2410FFEC3401FE1237AD
:100B4900E8900164EFF0900145E0FCA3E0FDAE04FC
:100B59007803CEC313CE13D8F9FF90014CE0FAA362
:100B6900E0FBB5070CEAB506087E00ED5407FF80E7
:100B7900047E007F00AD07AC06900147E0FEA3E0CC
:100B89007803CEC313CE13D8F924FFFFEE34FFFE4A
:100B9900EBB5070FEAB5060B7E00900148E0540754
:100BA900FF80047E007F0890015EEEF0A3EFF0AFB6
:100BB9000590014EECF0A3EFF090015EE0FEA3E09A
:100BC900FF90014EE0FCA3E0FDC39FEC9E400302B1
:100BD9000D73900164E020E703020D4F20002ED22F
:100BE9000090014CE0FAA3E0FBAE027803C333CED8
:100BF90033CED8F92DFFEC3E900160F0A3EFF090D1
:100C09000156EAF0A3EBF0A3ECF0A3EDF090016339
:100C1900E004F07006900162E004F0900143E0FE08
:100C2900A3E0FF900162E06E7003A3E06F6003022E
:100C39000D5B90014CE0FFA3E090015ACFF0A3EFC8
:100C4900F090014EE0FFA3E090015CCFF0A3EFF03C
:100C5900900156E0FFA3E0900150CFF0A3EFF09090
:100C6900015AE0FEA3E0FF900150E0FCA3E0FDD3B0
:100C79009FEC9E4003020D33E4A3F0A3F0A3F0A37D
:100C89007408F0A3E0FAA3E0FBEDB50311ECB5029B
:100C99000DA3E0FBA3E0900152CBF0A3EBF0EDB57F
:100CA9000713ECB5060F90015CE0FFA3E090015437
:100CB900CFF0A3EFF0900154E0FEA3E0FFD3900141
:100CC90053E09F900152E09E504F900151E0241053
:100CD900FF900150E03401FE1237E8900164EFF013
:100CE900900152A3E0FE7480A806088002C313D8BD
:100CF900FCF45F900164F0FD900151E02410FF9035
:100D09000150E03401FE12386C900153E004F07098
:100D1900A4900152E004F0809C900151E004F0702D
:100D290006900150E004F0020C68900160E0F9A31C
:100D3900E0FF900149E0FBA3E0FAA3E0C98FF012BC
:100D49001805E4FEFF22300009C200E4900162F0B8
:100D5900A3F0900164E025E0F090014FE004F07009
:100D69000690014EE004F0020BC290014DE004F040
:100D79006003020B1D90014CE004F0020B1D7E0084
:020D89007F1FCA
:010D8B002245
:1028AE00900006E4F0A374FFF0A3743FF0A3E4F0ED
:1028BE00A3743FF0E4900002F0A3F0900002E0FE5B
:1028CE00A3E0FFC39420EE9400501DEF2410FFEE02
:1028DE003401FE7DFF12386C900003E004F070DBD3
:1028EE00900002E004F080D39001497401F0A374CB
:1028FE0000F0A37404F07B507A007D107C007F06FC
:10290E007E00120AE5EF4E60030229D2900004E029
:10291E00FEA3E0FF64104E60030229D2EF25E0FF14
:10292E00EE33FEEF2410FFEE3401FE7B017A0079C8
:10293E000A7D017C001234C5900005E025E0FF9071
:10294E000004E033FEEF2411FFEE3401FE7B017A2A
:10295E000079087D027C001234C5900005E025E068
:10296E00FF900004E033FEEF2413FFEE3401FE7BF4
:10297E00017A0079047D027C001234C5900005E0D6
:10298E0025E0FF900004E033FEEF2415FFEE340146
:10299E00FE7B017A0079067D027C001234C5900020
:1029AE0005E025E0FF900004E033FEEF2417FFEE74
:1029BE003401FE7B017A0079067D027C001234C55B
:0829CE00E4FEFF227E007F1EE3
:0129D60022DE
:101C2C00900037EFF0A3ECF0A3EDF0A3EBF0A3EAF8
:041C3C00F0A3E9F038
:101C4000900045E4F0A374FFF0123B1B90003DEEC2
:101C5000F0A3EFF09001497401F0A37400F0A374B5
:101C600043F07B507A007D107C007F067E00120AD4
:101C7000E5EF641F4E700122900044E025E0FF90E4
:101C80000043E033FEEF2410FFEE3401FE7B017AC7
:101C90000079377D017C001234C5900044E025E0D6
:101CA000FF900043E033FEEF2411FFEE3401FE7B92
:101CB000017A0079387D027C001234C5900044E03E
:101CC00025E0FF900043E033FEEF2413FFEE3401E4
:101CD000FE7B017A00793D7D027C001234C59000C4
:101CE00044E025E0FF900043E033FEEF2415FFEED3
:101CF0003401FE7B017A0079457D027C001234C5F7
:101D0000900044E025E0FF900043E033FEEF24170D
:101D1000FFEE3401FE7B017A0079457D027C0012E2
:101D200034C590003EE025E0FF90003DE033FEEF3B
:101D30002415FFEE3401FE7B017A00793F7D027CA1
:101D400000123453900045E0FEA3E0FF90003FE016
:101D5000B50617A3E0B5071290003EE025E0FF901E
:101D6000003DE033FEEF2415804B90003FE0FEA3E2
:101D7000E0FFF44E6023A3EEF0A3EFF025E0FFEECA
:101D800033FEEF2417FFEE3401FE7B017A00793F2A
:101D90007D027C0012345380D1900041E0FFA3E02B
:101DA00090003FCFF0A3EFF0E025E0FF90003FE090
:101DB00033FEEF2417FFEE3401FE7B017A007943F6
:101DC0007D027C001234C5900043E0F9A3E0FF904F
:101DD000003AE0FBA3E0FAA3E0C98FF0121805E493
:021DE000FEFF04
:011DE20022DE
:0B000300900037EBF0A3EAF0A3E9F057
:10000E00E4900142F0900037E0FBA3E0FAA3E0F9A0
:10001E0090000212174124FE700302012B24FE7081
:10002E000302027D240360030204D090000812171D
:10003E00CD2405FFE435F0FEEF20E009EEC313FEFC
:10004E00EF13FF80179000081217CD2405FFE4353B
:10005E00F0C313FEEF132401FFE43EFE120ACF900D
:10006E000041EEF0A3EFF0641F4E700302034E90BA
:10007E000040E025E0FF90003FE033FEEF2410FF4C
:10008E00EE3401FE900037E0FBA3E0FAA3E0240279
:10009E00F9E43AFA7D017C001234C5900040E02567
:1000AE00E0FF90003FE033FEEF2411FFEE3401FE3F
:1000BE00900037E0FBA3E0FAA3E02403F9E43AFA58
:1000CE007D017C001234C5900040E025E0FF9000D9
:1000DE003FE033FEEF2412FFEE3401FE900037E0D6
:1000EE00FBA3E0FAA3E02404F9E43AFA7D017C00D4
:1000FE001234C5900040E025E0FF90003FE033FE53
:10010E00EF2413FFEE3401FE900037E0FBA3E0FA7C
:10011E00A3E02408F9E43AFA7D020204B390003712
:10012E00E0FBA3E0FAA3E0F990000A121741FF7E6C
:10013E00009000081217CDFDACF0121790EF2406B8
:10014E00FFE43EFEEF20E009EEC313FEEF13FF8047
:10015E0031900037E0FBA3E0FAA3E0F990000A1219
:10016E001741FF7E009000081217CDFDACF012175C
:10017E0090EF2406FFE43EC313FEEF132401FFE4C9
:10018E003EFE120ACF900041EEF0A3EFF0641F4E38
:10019E00700302034E900040E025E0FF90003FE028
:1001AE0033FEEF2410FFEE3401FE900037E0FBA388
:1001BE00E0FAA3E02402F9E43AFA7D017C0012345D
:1001CE00C5900040E025E0FF90003FE033FEEF24B5
:1001DE0011FFEE3401FE900037E0FBA3E0FAA3E03E
:1001EE002403F9E43AFA7D017C001234C5900040F4
:1001FE00E025E0FF90003FE033FEEF2412FFEE34E7
:10020E0001FE900037E0FBA3E0FAA3E02404F9E43A
:10021E003AFA7D017C001234C5900040E025E0FFE3
:10022E0090003FE033FEEF2413FFEE3401FE90000A
:10023E0037E0FBA3E0FAA3E02408F9E43AFA7D02E2
:10024E007C001234C5900040E025E0FF90003FE0B6
:10025E0033FEEF2415FFEE3401FE900037E0FBA3D2
:10026E00E0FAA3E0240AF9E43AFA7D010204B3E4C9
:10027E0090003DF0A3F0900037E0FBA3E0FAA3E07E
:10028E00F99000081217CDFFC390003EE09F90003A
:10029E003DE095F0503F900215E0F4FF123A2F1218
:1002AE003A9B90003DA3E0FE2443F582E43400F532
:1002BE0083EFF074432EF582E43400F583E0FF9073
:1002CE000142E02FF090003EE004F070A990003D56
:1002DE00E004F080A1900037E0FBA3E0FAA3E0F980
:1002EE009000081217CDFF900142E02FFFE435F089
:1002FE00CF2406CF3400FEEF20E009EEC313FEEF4D
:10030E0013FF802C900037E0FBA3E0FAA3E0F990F6
:10031E0000081217CDFF900142E02FFFE435F0CF19
:10032E002406CF3400C313FEEF132401FFE43EFE78
:10033E00120ACF900041EEF0A3EFF0641F4E700949
:10034E00900041E0FEA3E0FF22900040E025E0FF98
:10035E0090003FE033FEEF2410FFEE3401FE9000DC
:10036E0037E0FBA3E0FAA3E02402F9E43AFA7D01B8
:10037E007C001234C5900040E025E0FF90003FE085
:10038E0033FEEF2411FFEE3401FE900037E0FBA3A5
:10039E00E0FAA3E02403F9E43AFA7D017C0012347A
:1003AE00C5900040E025E0FF90003FE033FEEF24D3
:1003BE0012FFEE3401FE900037E0FBA3E0FAA3E05B
:1003CE002404F9E43AFA7D017C001234C590004011
:1003DE00E025E0FF90003FE033FEEF2413FFEE3404
:1003EE0001FE900037E0FBA3E0FAA3E02408F9E455
:1003FE003AFA7D027C001234C5E4900142F090007E
:10040E003DF0A3F0900037E0FBA3E0FAA3E0F990F3
:10041E0000081217CDFF90003DE0FCA3E0FDC39F46
:10042E00EC95F0504C900040E025E0FF90003FE04E
:10043E0033FEEF2415FFEE3401CF2DCF3CFE7B01B2
:10044E007A0179427D017C001234C590003DA3E013
:10045E002443F582E43400F583E0FF900142E02F5F
:10046E00F090003EE004F0709B90003DE004F080C0
:10047E0093900037E0FBA3E0FAA3E0F99000081296
:10048E0017CDFD900040E025E0FF90003FE033FEE9
:10049E00EF2415FFEE3401CF2DCF35F0FE7B017A20
:1004AE000179427D017C001234C590003FE0F9A332
:1004BE00E0FF90003AE0FBA3E0FAA3E0C98FF01250
:0504CE001805E4FEFF2B
:0104D3002206
:1030E50090002DEBF0A3EAF0A3E9F090002BEEF0B1
:0330F500A3EFF056
:1030F800644F4E7003A3800F90002BE07004A3E090
:10310800645F701890002DE0FBA3E0FAA3E0F912C9
:1031180017A2FF900034E5F0F0A3EFF0123B1BEF8D
:1031280025E0FFEE33FEEF2410FFEE3401FE7B01B5
:103138007A0079367D017C00123453900036E0B471
:103148005F057E007F232290002BA3E0FF900034D0
:10315800E0FCA3E0FD7B017A007930121C2CEF4ED5
:1031680060012290002BE07004A3E0645F7042903D
:10317800003A04F0A37400F0A37432F090002DE03C
:10318800FBA3E0FAA3E0F9120003EF4E60012290DE
:103198000031E025E0FF900030E033FEEF2419FF16
:1031A800EE3401FE7B017A0079327D027C00123414
:0F31B800C5900030E0FEA3E0FF1239E0E4FEFF17
:0131C70022E5
:0C29D700900011ECF0A3EDF0AB07AA0695
:1029E300EB7803CEC313CE13D8F9FF900013EEF0A8
:1029F300A3EFF0EB5407900017F0900012E02BFDCB
:102A0300900011E03AFCEDAE047803CEC313CE136D
:102A1300D8F9FF900015EEF0A3EFF0ED5407900006
:102A230018F0900013E0FFA3E090001BCFF0A3EF9A
:102A3300F0900015E0FEA3E0FF90001BE0FCA3E094
:102A4300FDD39FEC9E4003022AF6ED2410FFEC34E5
:102A530001FE1237E8900019EFF0900013E0FEA397
:102A6300E0FF90001BE0FCA3E0FDB5070BECB5060F
:102A730007900017E0FF80027F00900015E0FAA3A3
:102A8300E0B5050BECB50207900018E0FE80027E6E
:102A930008E490001AF0EFFD7C00EEFBC3ED9BEC25
:102AA3009400501BAF057480A807088002C313D895
:102AB300FCFF90001AE06FF00DBD00010C80DB906D
:102AC3000019E0FFA3E0FEEF6E900019F0FD900007
:102AD3001CE02410FF90001BE03401FE12386C90C0
:102AE300001CE004F06003022A3490001BE004F0B1
:062AF300022A34E4FEFF9C
:012AF90022BA
:101A3F00122125900002EEF0A3EFF0F44E7004FE99
:101A4F007F2022900003E025E0FF900002E033FEAC
:101A5F00EF2413FFEE3401FE7B017A0079047D023F
:101A6F007C00123453900005E025E0FF900004E065
:101A7F0033FEEF2415FFEE3401FE7B017A00790669
:101A8F007D027C00123453900002E0FEA3E0FF9031
:101A9F000006E06E7003A3E06F7039EF25E0FFEEF4
:101AAF0033FEEF2417FFEE3401FE7B017A00790637
:101ABF007D027C00123453900005E025E0FF90007A
:101ACF0004E033FEEF2415FFEE3401FE7B017A00B4
:101ADF007906807C900002E0FEA3E0FF900006E014
:101AEF006E7003A3E06F602B900006E0FEA3E0FF93
:101AFF00A3EEF0A3EFF025E0FFEE33FEEF2417FF88
:101B0F00EE3401FE7B017A0079067D027C001234EF
:101B1F005380C1900003E025E0FF900002E033FE08
:101B2F00EF2417FFEE3401FE7B017A00790A7D0264
:101B3F007C00123453900009E025E0FF900008E08C
:101B4F0033FEEF2417FFEE3401FE7B017A00790A92
:101B5F007D027C001234C5900003E025E0FF900069
:101B6F0002E033FEEF2410FFEE3401FE7B017A001A
:101B7F0079107D017C00123453900010E0645F6097
:101B8F0003021C19900003E025E0FF900002E033F0
:101B9F00FEEF2419FFEE3401FE7B017A00790C7DF4
:101BAF00027C0012345390000DE025E0FF90000CF2
:101BBF00E033FEEF2413FFEE3401FE7B017A007950
:101BCF000E7D027C0012345390000FE02405FF902D
:101BDF00000EE03400FEEF20E00BEEC313FEEF1318
:101BEF00AC06FD801A90000FE02405FF90000EE078
:101BFF003400C313FEEF132401FFE43EFCAD079046
:101C0F00000CE0FEA3E0FF1229D7900002E0FEA334
:0C1C1F00E0FF7D067C001229D7E4FEFFE8
:011C2B002296
:1039B60075F9FF75FAFF75FBFF75FCFF75FDFF7561
:0639C600F8FF75FFFF226F
:1039F40075FF848FFCAE058EFDAD03ED2F14F5FB32
:043A040075FFFF2229
:103A080075FF048FFCAE058EFDAD03ED2F14F5FB9D
:043A180075FFFF2215
:0D3AB80075FF038FFDAF058FF975FFFF222D
:0D3AC50075FF838FFDAF058FF975FFFF22A0
:093B2D0075FF838FF975FFFF227B
:103A680075FF828FFC75FFFF30FAFDE4F5FFAFFAB2
:023A7800FE222C
:103A7A0075FF028FFC75FFFF30FAFDE4F5FFAFFA20
:023A8A00FE221A
:0D3AD20075FF818FFCAF058FFD75FFFF2292
:0D3ADF0075FF018FFCAF058FFD75FFFF2205
:073B4D0075FF8875FFFF22E0
:073B540075FF0875FFFF2259
:073B5B0075FF8575FFFF22D5
:073B620075FF0575FFFF224E
:073B690075FF8675FFFF22C6
:073B700075FF0675FFFF223F
:073B770075FF8975FFFF22B5
:073B7E0075FF0975FFFF222E
:073B850075FF0775FFFF2229
:073B8C0075FF8775FFFF22A2
:073B930075FF0A75FFFF2218
:073B9A0075FF8A75FFFF2291
:10335600023951E493A3F8E493A34003F68001F203
:1033660008DFF48029E493A3F85407240CC8C33378
:10337600C4540F4420C8834004F456800146F6DF47
:10338600E4800B0102040810204080903B04E47E98
:10339600019360BCA3FF543F30E509541FFEE4933C
:1033A600A360010ECF54C025E060A840B8E493A303
:1033B600FAE493A3F8E493A3C8C582C8CAC583CA2E
:1033C600F0A3C8C582C8CAC583CADFE9DEE780BEE6
:013B0F0000B5
:10164B00E709F608DFFA8046E709F208DFFA803E81
:10165B0088828C83E709F0A3DFFA8032E309F6086E
:10166B00DFFA8078E309F208DFFA807088828C83D6
:10167B00E309F0A3DFFA806489828A83E0A3F6088A
:10168B00DFFA805889828A83E0A3F208DFFA804C64
:10169B0080D280FA80C680D4806980F2803380103B
:1016AB0080A680EA809A80A880DA80E280CA8033A4
:1016BB0089828A83ECFAE493A3C8C582C8CCC5831C
:1016CB00CCF0A3C8C582C8CCC583CCDFE9DEE780EC
:1016DB000D89828A83E493A3F608DFF9ECFAA9F06B
:1016EB00EDFB2289828A83ECFAE0A3C8C582C8CCC1
:1016FB00C583CCF0A3C8C582C8CCC583CCDFEADEDA
:10170B00E880DB89828A83E493A3F208DFF980CC3B
:10171B0088F0EF60010E4E60C388F0ED2402B40434
:10172B000050B9F582EB2402B4040050AF232345DB
:06173B00822390169B734F
:10174100BB010CE58229F582E5833AF583E022505D
:1017510006E92582F8E622BBFE06E92582F8E222A7
:0D176100E58229F582E5833AF583E49322C1
:10176E00F8BB010DE58229F582E5833AF583E8F0B1
:10177E00225006E92582C8F622BBFE05E92582C85D
:02178E00F22245
:10179000EF8DF0A4A8F0CF8CF0A428CE8DF0A42E6D
:0217A000FE2227
:1017A200BB010A89828A83E0F5F0A3E02250068712
:1017B200F009E71922BBFE07E3F5F009E3192289D4
:0B17C200828A83E493F5F07401932207
:1017CD00BB0110E58229F582E5833AF583E0F5F05A
:1017DD00A3E0225009E92582F886F008E622BBFE37
:1017ED000AE92582F8E2F5F008E222E5832AF5837D
:0817FD00E993F5F0A3E9932242
:10180500BB010A89828A83F0E5F0A3F0225006F72E
:0F18150009A7F01922BBFE06F3E5F009F319222B
:10182400D083D082F8E4937012740193700DA3A353
:1018340093F8740193F5828883E473740293686067
:06184400EFA3A3A380DF67
:00000001FF
